{
  "contractName": "wmt",
  "abi": [
    {
      "constant": true,
      "inputs": [
        {
          "name": "",
          "type": "uint256"
        }
      ],
      "name": "managers",
      "outputs": [
        {
          "name": "",
          "type": "string"
        }
      ],
      "payable": false,
      "stateMutability": "view",
      "type": "function"
    },
    {
      "constant": true,
      "inputs": [],
      "name": "cfi_balance",
      "outputs": [
        {
          "name": "",
          "type": "uint256"
        }
      ],
      "payable": false,
      "stateMutability": "view",
      "type": "function"
    },
    {
      "constant": true,
      "inputs": [
        {
          "name": "",
          "type": "uint256"
        }
      ],
      "name": "chainIn",
      "outputs": [
        {
          "name": "id",
          "type": "string"
        },
        {
          "name": "amount",
          "type": "uint256"
        },
        {
          "name": "tax_type",
          "type": "string"
        },
        {
          "name": "credit_type",
          "type": "string"
        },
        {
          "name": "tax_head_code",
          "type": "string"
        },
        {
          "name": "timestamp",
          "type": "uint256"
        }
      ],
      "payable": false,
      "stateMutability": "view",
      "type": "function"
    },
    {
      "constant": true,
      "inputs": [
        {
          "name": "",
          "type": "uint256"
        }
      ],
      "name": "chainOut",
      "outputs": [
        {
          "name": "gstin",
          "type": "string"
        },
        {
          "name": "amount",
          "type": "uint256"
        },
        {
          "name": "debitType",
          "type": "string"
        },
        {
          "name": "details",
          "type": "string"
        },
        {
          "name": "authorityId",
          "type": "string"
        },
        {
          "name": "areaCode",
          "type": "string"
        },
        {
          "name": "timestamp",
          "type": "uint256"
        }
      ],
      "payable": false,
      "stateMutability": "view",
      "type": "function"
    },
    {
      "constant": true,
      "inputs": [
        {
          "name": "",
          "type": "uint256"
        }
      ],
      "name": "controllers",
      "outputs": [
        {
          "name": "id",
          "type": "string"
        },
        {
          "name": "name",
          "type": "string"
        },
        {
          "name": "designation",
          "type": "string"
        },
        {
          "name": "branchCode",
          "type": "string"
        },
        {
          "name": "exist",
          "type": "bool"
        }
      ],
      "payable": false,
      "stateMutability": "view",
      "type": "function"
    },
    {
      "constant": true,
      "inputs": [],
      "name": "admin",
      "outputs": [
        {
          "name": "",
          "type": "address"
        }
      ],
      "payable": false,
      "stateMutability": "view",
      "type": "function"
    },
    {
      "inputs": [],
      "payable": false,
      "stateMutability": "nonpayable",
      "type": "constructor"
    },
    {
      "constant": false,
      "inputs": [
        {
          "name": "id",
          "type": "string"
        },
        {
          "name": "amount",
          "type": "uint256"
        },
        {
          "name": "tax_type",
          "type": "string"
        },
        {
          "name": "credit_type",
          "type": "string"
        },
        {
          "name": "tax_head_code",
          "type": "string"
        }
      ],
      "name": "creditTax",
      "outputs": [
        {
          "name": "",
          "type": "string"
        }
      ],
      "payable": true,
      "stateMutability": "payable",
      "type": "function"
    },
    {
      "constant": false,
      "inputs": [
        {
          "name": "gstin",
          "type": "string"
        },
        {
          "name": "amount",
          "type": "uint256"
        },
        {
          "name": "areaCode",
          "type": "string"
        },
        {
          "name": "debitType",
          "type": "string"
        },
        {
          "name": "details",
          "type": "string"
        },
        {
          "name": "authorityId",
          "type": "string"
        }
      ],
      "name": "debitTax",
      "outputs": [
        {
          "name": "",
          "type": "string"
        }
      ],
      "payable": true,
      "stateMutability": "payable",
      "type": "function"
    },
    {
      "constant": false,
      "inputs": [
        {
          "name": "m_address",
          "type": "address"
        },
        {
          "name": "treasuryCode",
          "type": "string"
        }
      ],
      "name": "registerDebitManager",
      "outputs": [
        {
          "name": "",
          "type": "string"
        }
      ],
      "payable": true,
      "stateMutability": "payable",
      "type": "function"
    },
    {
      "constant": false,
      "inputs": [
        {
          "name": "m_address",
          "type": "address"
        },
        {
          "name": "taxBoothCode",
          "type": "string"
        }
      ],
      "name": "registerCreditManager",
      "outputs": [
        {
          "name": "",
          "type": "string"
        }
      ],
      "payable": true,
      "stateMutability": "payable",
      "type": "function"
    },
    {
      "constant": false,
      "inputs": [
        {
          "name": "areaCode",
          "type": "string"
        },
        {
          "name": "state",
          "type": "string"
        },
        {
          "name": "district",
          "type": "string"
        },
        {
          "name": "subDivision",
          "type": "string"
        },
        {
          "name": "locality",
          "type": "string"
        },
        {
          "name": "pincode",
          "type": "string"
        }
      ],
      "name": "addArea",
      "outputs": [
        {
          "name": "",
          "type": "string"
        }
      ],
      "payable": true,
      "stateMutability": "payable",
      "type": "function"
    },
    {
      "constant": false,
      "inputs": [
        {
          "name": "id",
          "type": "string"
        },
        {
          "name": "name",
          "type": "string"
        },
        {
          "name": "designation",
          "type": "string"
        },
        {
          "name": "branchCode",
          "type": "string"
        }
      ],
      "name": "regieterControllingAuthority",
      "outputs": [],
      "payable": true,
      "stateMutability": "payable",
      "type": "function"
    },
    {
      "constant": true,
      "inputs": [],
      "name": "getChainInLength",
      "outputs": [
        {
          "name": "",
          "type": "uint256"
        }
      ],
      "payable": false,
      "stateMutability": "view",
      "type": "function"
    },
    {
      "constant": true,
      "inputs": [],
      "name": "getChainOutLength",
      "outputs": [
        {
          "name": "",
          "type": "uint256"
        }
      ],
      "payable": false,
      "stateMutability": "view",
      "type": "function"
    }
  ],
  "bytecode": "0x60806040523480156200001157600080fd5b50336000806101000a81548173ffffffffffffffffffffffffffffffffffffffff021916908373ffffffffffffffffffffffffffffffffffffffff160217905550620001a66040518060400160405280600881526020017f74616d626172616d0000000000000000000000000000000000000000000000008152506040518060400160405280600281526020017f544e0000000000000000000000000000000000000000000000000000000000008152506040518060400160405280600781526020017f4368656e6e6169000000000000000000000000000000000000000000000000008152506040518060400160405280600b81526020017f50616c617661707572616d0000000000000000000000000000000000000000008152506040518060400160405280600881526020017f74616d626172616d0000000000000000000000000000000000000000000000008152506040518060400160405280600681526020017f3630303034340000000000000000000000000000000000000000000000000000815250620007a060201b60201c565b506200028f6040518060400160405280600281526020017f34350000000000000000000000000000000000000000000000000000000000008152506040518060400160405280600781526020017f5368616e6b6172000000000000000000000000000000000000000000000000008152506040518060400160405280600981526020017f446576656c6f70657200000000000000000000000000000000000000000000008152506040518060400160405280600381526020017f434831000000000000000000000000000000000000000000000000000000000081525062000ac860201b60201c565b6200037b6040518060400160405280600c81526020017f38303830313237333933383200000000000000000000000000000000000000008152506207a1206040518060400160405280600281526020017f69740000000000000000000000000000000000000000000000000000000000008152506040518060400160405280600381526020017f74617800000000000000000000000000000000000000000000000000000000008152506040518060400160405280600381526020017f434831000000000000000000000000000000000000000000000000000000000081525062000cd460201b60201c565b50620004676040518060400160405280600c81526020017f38303830313237333933383200000000000000000000000000000000000000008152506127106040518060400160405280600281526020017f77740000000000000000000000000000000000000000000000000000000000008152506040518060400160405280600381526020017f74617800000000000000000000000000000000000000000000000000000000008152506040518060400160405280600381526020017f434831000000000000000000000000000000000000000000000000000000000081525062000cd460201b60201c565b50620005546040518060400160405280600b81526020017f3930373833373339383933000000000000000000000000000000000000000000815250627a12006040518060400160405280600381526020017f67737400000000000000000000000000000000000000000000000000000000008152506040518060400160405280600381526020017f74617800000000000000000000000000000000000000000000000000000000008152506040518060400160405280600381526020017f434831000000000000000000000000000000000000000000000000000000000081525062000cd460201b60201c565b50620006776040518060400160405280600b81526020017f3930373833373339383933000000000000000000000000000000000000000000815250620493e06040518060400160405280600881526020017f74616d626172616d0000000000000000000000000000000000000000000000008152506040518060400160405280600681526020017f74656e64657200000000000000000000000000000000000000000000000000008152506040518060400160405280600f81526020017f4275696c64206120666c796f76657200000000000000000000000000000000008152506040518060400160405280600281526020017f343500000000000000000000000000000000000000000000000000000000000081525062000e8a60201b60201c565b50620007996040518060400160405280600b81526020017f393037383337333938393300000000000000000000000000000000000000000081525061c3506040518060400160405280600881526020017f74616d626172616d0000000000000000000000000000000000000000000000008152506040518060400160405280600681526020017f74656e64657200000000000000000000000000000000000000000000000000008152506040518060400160405280601181526020017f526f616420636f6e737472756374696f6e0000000000000000000000000000008152506040518060400160405280600281526020017f343500000000000000000000000000000000000000000000000000000000000081525062000e8a60201b60201c565b5062001181565b606060011515600760003373ffffffffffffffffffffffffffffffffffffffff1673ffffffffffffffffffffffffffffffffffffffff16815260200190815260200160002060009054906101000a900460ff161515148062000852575060011515600660003373ffffffffffffffffffffffffffffffffffffffff1673ffffffffffffffffffffffffffffffffffffffff16815260200190815260200160002060009054906101000a900460ff161515145b806200085c575060015b6200086657600080fd5b60011515600b886040518082805190602001908083835b60208310620008a257805182526020820191506020810190506020830392506200087d565b6001836020036101000a038019825116818451168082178552505050505050905001915050908152602001604051809103902060050160009054906101000a900460ff1615151462000a85576040518060c0016040528087815260200186815260200185815260200184815260200183815260200160011515815250600b886040518082805190602001908083835b6020831062000956578051825260208201915060208101905060208303925062000931565b6001836020036101000a03801982511681845116808217855250505050505090500191505090815260200160405180910390206000820151816000019080519060200190620009a79291906200102e565b506020820151816001019080519060200190620009c69291906200102e565b506040820151816002019080519060200190620009e59291906200102e565b50606082015181600301908051906020019062000a049291906200102e565b50608082015181600401908051906020019062000a239291906200102e565b5060a08201518160050160006101000a81548160ff0219169083151502179055509050506040518060400160405280600281526020017f4f4b000000000000000000000000000000000000000000000000000000000000815250905062000abe565b6040518060400160405280601c81526020017f4172656120636f646520616c726561647920726567697374657265640000000081525090505b9695505050505050565b60011515600760003373ffffffffffffffffffffffffffffffffffffffff1673ffffffffffffffffffffffffffffffffffffffff16815260200190815260200160002060009054906101000a900460ff161515148062000b78575060011515600660003373ffffffffffffffffffffffffffffffffffffffff1673ffffffffffffffffffffffffffffffffffffffff16815260200190815260200160002060009054906101000a900460ff161515145b8062000b82575060015b62000b8c57600080fd5b62000b96620010b5565b6040518060a0016040528086815260200185815260200184815260200183815260200160011515815250905080600a866040518082805190602001908083835b6020831062000bfb578051825260208201915060208101905060208303925062000bd6565b6001836020036101000a0380198251168184511680821785525050505050509050019150509081526020016040518091039020600082015181600001908051906020019062000c4c9291906200102e565b50602082015181600101908051906020019062000c6b9291906200102e565b50604082015181600201908051906020019062000c8a9291906200102e565b50606082015181600301908051906020019062000ca99291906200102e565b5060808201518160040160006101000a81548160ff0219169083151502179055509050505050505050565b606060011515600760003373ffffffffffffffffffffffffffffffffffffffff1673ffffffffffffffffffffffffffffffffffffffff16815260200190815260200160002060009054906101000a900460ff161515148062000d34575060015b62000d3e57600080fd5b8460016000828254019250508190555062000d58620010e6565b6040518060c0016040528088815260200187815260200186815260200185815260200184815260200142815250905060028190806001815401808255809150509060018203906000526020600020906006020160009091929091909150600082015181600001908051906020019062000dd39291906200102e565b5060208201518160010155604082015181600201908051906020019062000dfc9291906200102e565b50606082015181600301908051906020019062000e1b9291906200102e565b50608082015181600401908051906020019062000e3a9291906200102e565b5060a082015181600501555050506040518060400160405280600281526020017f4f4b00000000000000000000000000000000000000000000000000000000000081525091505095945050505050565b606060011515600660003373ffffffffffffffffffffffffffffffffffffffff1673ffffffffffffffffffffffffffffffffffffffff16815260200190815260200160002060009054906101000a900460ff161515148062000eea575060015b62000ef457600080fd5b8560016000828254039250508190555062000f0e6200111c565b6040518060e0016040528089815260200188815260200186815260200185815260200184815260200187815260200142815250905060038190806001815401808255809150509060018203906000526020600020906007020160009091929091909150600082015181600001908051906020019062000f8f9291906200102e565b5060208201518160010155604082015181600201908051906020019062000fb89291906200102e565b50606082015181600301908051906020019062000fd79291906200102e565b50608082015181600401908051906020019062000ff69291906200102e565b5060a0820151816005019080519060200190620010159291906200102e565b5060c08201518160060155505050509695505050505050565b828054600181600116156101000203166002900490600052602060002090601f016020900481019282601f106200107157805160ff1916838001178555620010a2565b82800160010185558215620010a2579182015b82811115620010a157825182559160200191906001019062001084565b5b509050620010b1919062001159565b5090565b6040518060a00160405280606081526020016060815260200160608152602001606081526020016000151581525090565b6040518060c001604052806060815260200160008152602001606081526020016060815260200160608152602001600081525090565b6040518060e00160405280606081526020016000815260200160608152602001606081526020016060815260200160608152602001600081525090565b6200117e91905b808211156200117a57600081600090555060010162001160565b5090565b90565b61308780620011916000396000f3fe6080604052600436106100dd5760003560e01c8063dd887a841161007f578063e94b0dd211610059578063e94b0dd2146113d0578063ec4a8029146115d3578063f71da92514611853578063f851a4401461187e576100dd565b8063dd887a8414610e04578063df76c0741461100a578063e49db5b41461127c576100dd565b80635dd0de2f116100bb5780635dd0de2f146108c05780636079b5f314610a145780637b1207e614610a3f57806380a0780714610dd9576100dd565b80632bf70a29146100e257806334e51430146103e55780633d39c2601461080c575b600080fd5b61036a600480360360a08110156100f857600080fd5b810190808035906020019064010000000081111561011557600080fd5b82018360208201111561012757600080fd5b8035906020019184600183028401116401000000008311171561014957600080fd5b91908080601f016020809104026020016040519081016040528093929190818152602001838380828437600081840152601f19601f82011690508083019250505050505050919291929080359060200190929190803590602001906401000000008111156101b657600080fd5b8201836020820111156101c857600080fd5b803590602001918460018302840111640100000000831117156101ea57600080fd5b91908080601f016020809104026020016040519081016040528093929190818152602001838380828437600081840152601f19601f8201169050808301925050505050505091929192908035906020019064010000000081111561024d57600080fd5b82018360208201111561025f57600080fd5b8035906020019184600183028401116401000000008311171561028157600080fd5b91908080601f016020809104026020016040519081016040528093929190818152602001838380828437600081840152601f19601f820116905080830192505050505050509192919290803590602001906401000000008111156102e457600080fd5b8201836020820111156102f657600080fd5b8035906020019184600183028401116401000000008311171561031857600080fd5b91908080601f016020809104026020016040519081016040528093929190818152602001838380828437600081840152601f19601f8201169050808301925050505050505091929192905050506118d5565b6040518080602001828103825283818151815260200191508051906020019080838360005b838110156103aa57808201518184015260208101905061038f565b50505050905090810190601f1680156103d75780820380516001836020036101000a031916815260200191505b509250505060405180910390f35b610791600480360360c08110156103fb57600080fd5b810190808035906020019064010000000081111561041857600080fd5b82018360208201111561042a57600080fd5b8035906020019184600183028401116401000000008311171561044c57600080fd5b91908080601f016020809104026020016040519081016040528093929190818152602001838380828437600081840152601f19601f820116905080830192505050505050509192919290803590602001906401000000008111156104af57600080fd5b8201836020820111156104c157600080fd5b803590602001918460018302840111640100000000831117156104e357600080fd5b91908080601f016020809104026020016040519081016040528093929190818152602001838380828437600081840152601f19601f8201169050808301925050505050505091929192908035906020019064010000000081111561054657600080fd5b82018360208201111561055857600080fd5b8035906020019184600183028401116401000000008311171561057a57600080fd5b91908080601f016020809104026020016040519081016040528093929190818152602001838380828437600081840152601f19601f820116905080830192505050505050509192919290803590602001906401000000008111156105dd57600080fd5b8201836020820111156105ef57600080fd5b8035906020019184600183028401116401000000008311171561061157600080fd5b91908080601f016020809104026020016040519081016040528093929190818152602001838380828437600081840152601f19601f8201169050808301925050505050505091929192908035906020019064010000000081111561067457600080fd5b82018360208201111561068657600080fd5b803590602001918460018302840111640100000000831117156106a857600080fd5b91908080601f016020809104026020016040519081016040528093929190818152602001838380828437600081840152601f19601f8201169050808301925050505050505091929192908035906020019064010000000081111561070b57600080fd5b82018360208201111561071d57600080fd5b8035906020019184600183028401116401000000008311171561073f57600080fd5b91908080601f016020809104026020016040519081016040528093929190818152602001838380828437600081840152601f19601f820116905080830192505050505050509192919290505050611a7f565b6040518080602001828103825283818151815260200191508051906020019080838360005b838110156107d15780820151818401526020810190506107b6565b50505050905090810190601f1680156107fe5780820380516001836020036101000a031916815260200191505b509250505060405180910390f35b34801561081857600080fd5b506108456004803603602081101561082f57600080fd5b8101908080359060200190929190505050611d94565b6040518080602001828103825283818151815260200191508051906020019080838360005b8381101561088557808201518184015260208101905061086a565b50505050905090810190601f1680156108b25780820380516001836020036101000a031916815260200191505b509250505060405180910390f35b610999600480360360408110156108d657600080fd5b81019080803573ffffffffffffffffffffffffffffffffffffffff1690602001909291908035906020019064010000000081111561091357600080fd5b82018360208201111561092557600080fd5b8035906020019184600183028401116401000000008311171561094757600080fd5b91908080601f016020809104026020016040519081016040528093929190818152602001838380828437600081840152601f19601f820116905080830192505050505050509192919290505050611e4d565b6040518080602001828103825283818151815260200191508051906020019080838360005b838110156109d95780820151818401526020810190506109be565b50505050905090810190601f168015610a065780820380516001836020036101000a031916815260200191505b509250505060405180910390f35b348015610a2057600080fd5b50610a29612042565b6040518082815260200191505060405180910390f35b610d5e600480360360c0811015610a5557600080fd5b8101908080359060200190640100000000811115610a7257600080fd5b820183602082011115610a8457600080fd5b80359060200191846001830284011164010000000083111715610aa657600080fd5b91908080601f016020809104026020016040519081016040528093929190818152602001838380828437600081840152601f19601f8201169050808301925050505050505091929192908035906020019092919080359060200190640100000000811115610b1357600080fd5b820183602082011115610b2557600080fd5b80359060200191846001830284011164010000000083111715610b4757600080fd5b91908080601f016020809104026020016040519081016040528093929190818152602001838380828437600081840152601f19601f82011690508083019250505050505050919291929080359060200190640100000000811115610baa57600080fd5b820183602082011115610bbc57600080fd5b80359060200191846001830284011164010000000083111715610bde57600080fd5b91908080601f016020809104026020016040519081016040528093929190818152602001838380828437600081840152601f19601f82011690508083019250505050505050919291929080359060200190640100000000811115610c4157600080fd5b820183602082011115610c5357600080fd5b80359060200191846001830284011164010000000083111715610c7557600080fd5b91908080601f016020809104026020016040519081016040528093929190818152602001838380828437600081840152601f19601f82011690508083019250505050505050919291929080359060200190640100000000811115610cd857600080fd5b820183602082011115610cea57600080fd5b80359060200191846001830284011164010000000083111715610d0c57600080fd5b91908080601f016020809104026020016040519081016040528093929190818152602001838380828437600081840152601f19601f82011690508083019250505050505050919291929050505061204f565b6040518080602001828103825283818151815260200191508051906020019080838360005b83811015610d9e578082015181840152602081019050610d83565b50505050905090810190601f168015610dcb5780820380516001836020036101000a031916815260200191505b509250505060405180910390f35b348015610de557600080fd5b50610dee6121e5565b6040518082815260200191505060405180910390f35b348015610e1057600080fd5b50610e3d60048036036020811015610e2757600080fd5b81019080803590602001909291905050506121eb565b604051808060200187815260200180602001806020018060200186815260200185810385528b818151815260200191508051906020019080838360005b83811015610e95578082015181840152602081019050610e7a565b50505050905090810190601f168015610ec25780820380516001836020036101000a031916815260200191505b50858103845289818151815260200191508051906020019080838360005b83811015610efb578082015181840152602081019050610ee0565b50505050905090810190601f168015610f285780820380516001836020036101000a031916815260200191505b50858103835288818151815260200191508051906020019080838360005b83811015610f61578082015181840152602081019050610f46565b50505050905090810190601f168015610f8e5780820380516001836020036101000a031916815260200191505b50858103825287818151815260200191508051906020019080838360005b83811015610fc7578082015181840152602081019050610fac565b50505050905090810190601f168015610ff45780820380516001836020036101000a031916815260200191505b509a505050505050505050505060405180910390f35b34801561101657600080fd5b506110436004803603602081101561102d57600080fd5b8101908080359060200190929190505050612494565b60405180806020018881526020018060200180602001806020018060200187815260200186810386528d818151815260200191508051906020019080838360005b8381101561109f578082015181840152602081019050611084565b50505050905090810190601f1680156110cc5780820380516001836020036101000a031916815260200191505b5086810385528b818151815260200191508051906020019080838360005b838110156111055780820151818401526020810190506110ea565b50505050905090810190601f1680156111325780820380516001836020036101000a031916815260200191505b5086810384528a818151815260200191508051906020019080838360005b8381101561116b578082015181840152602081019050611150565b50505050905090810190601f1680156111985780820380516001836020036101000a031916815260200191505b50868103835289818151815260200191508051906020019080838360005b838110156111d15780820151818401526020810190506111b6565b50505050905090810190601f1680156111fe5780820380516001836020036101000a031916815260200191505b50868103825288818151815260200191508051906020019080838360005b8381101561123757808201518184015260208101905061121c565b50505050905090810190601f1680156112645780820380516001836020036101000a031916815260200191505b509c5050505050505050505050505060405180910390f35b6113556004803603604081101561129257600080fd5b81019080803573ffffffffffffffffffffffffffffffffffffffff169060200190929190803590602001906401000000008111156112cf57600080fd5b8201836020820111156112e157600080fd5b8035906020019184600183028401116401000000008311171561130357600080fd5b91908080601f016020809104026020016040519081016040528093929190818152602001838380828437600081840152601f19601f8201169050808301925050505050505091929192905050506127db565b6040518080602001828103825283818151815260200191508051906020019080838360005b8381101561139557808201518184015260208101905061137a565b50505050905090810190601f1680156113c25780820380516001836020036101000a031916815260200191505b509250505060405180910390f35b3480156113dc57600080fd5b50611409600480360360208110156113f357600080fd5b81019080803590602001909291905050506129d0565b60405180806020018060200180602001806020018615151515815260200185810385528a818151815260200191508051906020019080838360005b8381101561145f578082015181840152602081019050611444565b50505050905090810190601f16801561148c5780820380516001836020036101000a031916815260200191505b50858103845289818151815260200191508051906020019080838360005b838110156114c55780820151818401526020810190506114aa565b50505050905090810190601f1680156114f25780820380516001836020036101000a031916815260200191505b50858103835288818151815260200191508051906020019080838360005b8381101561152b578082015181840152602081019050611510565b50505050905090810190601f1680156115585780820380516001836020036101000a031916815260200191505b50858103825287818151815260200191508051906020019080838360005b83811015611591578082015181840152602081019050611576565b50505050905090810190601f1680156115be5780820380516001836020036101000a031916815260200191505b50995050505050505050505060405180910390f35b611851600480360360808110156115e957600080fd5b810190808035906020019064010000000081111561160657600080fd5b82018360208201111561161857600080fd5b8035906020019184600183028401116401000000008311171561163a57600080fd5b91908080601f016020809104026020016040519081016040528093929190818152602001838380828437600081840152601f19601f8201169050808301925050505050505091929192908035906020019064010000000081111561169d57600080fd5b8201836020820111156116af57600080fd5b803590602001918460018302840111640100000000831117156116d157600080fd5b91908080601f016020809104026020016040519081016040528093929190818152602001838380828437600081840152601f19601f8201169050808301925050505050505091929192908035906020019064010000000081111561173457600080fd5b82018360208201111561174657600080fd5b8035906020019184600183028401116401000000008311171561176857600080fd5b91908080601f016020809104026020016040519081016040528093929190818152602001838380828437600081840152601f19601f820116905080830192505050505050509192919290803590602001906401000000008111156117cb57600080fd5b8201836020820111156117dd57600080fd5b803590602001918460018302840111640100000000831117156117ff57600080fd5b91908080601f016020809104026020016040519081016040528093929190818152602001838380828437600081840152601f19601f820116905080830192505050505050509192919290505050612c80565b005b34801561185f57600080fd5b50611868612e7d565b6040518082815260200191505060405180910390f35b34801561188a57600080fd5b50611893612e8a565b604051808273ffffffffffffffffffffffffffffffffffffffff1673ffffffffffffffffffffffffffffffffffffffff16815260200191505060405180910390f35b606060011515600760003373ffffffffffffffffffffffffffffffffffffffff1673ffffffffffffffffffffffffffffffffffffffff16815260200190815260200160002060009054906101000a900460ff1615151480611934575060015b61193d57600080fd5b84600160008282540192505081905550611955612eaf565b6040518060c001604052808881526020018781526020018681526020018581526020018481526020014281525090506002819080600181540180825580915050906001820390600052602060002090600602016000909192909190915060008201518160000190805190602001906119ce929190612ee5565b506020820151816001015560408201518160020190805190602001906119f5929190612ee5565b506060820151816003019080519060200190611a12929190612ee5565b506080820151816004019080519060200190611a2f929190612ee5565b5060a082015181600501555050506040518060400160405280600281526020017f4f4b00000000000000000000000000000000000000000000000000000000000081525091505095945050505050565b606060011515600760003373ffffffffffffffffffffffffffffffffffffffff1673ffffffffffffffffffffffffffffffffffffffff16815260200190815260200160002060009054906101000a900460ff1615151480611b30575060011515600660003373ffffffffffffffffffffffffffffffffffffffff1673ffffffffffffffffffffffffffffffffffffffff16815260200190815260200160002060009054906101000a900460ff161515145b80611b39575060015b611b4257600080fd5b60011515600b886040518082805190602001908083835b60208310611b7c5780518252602082019150602081019050602083039250611b59565b6001836020036101000a038019825116818451168082178552505050505050905001915050908152602001604051809103902060050160009054906101000a900460ff16151514611d51576040518060c0016040528087815260200186815260200185815260200184815260200183815260200160011515815250600b886040518082805190602001908083835b60208310611c2d5780518252602082019150602081019050602083039250611c0a565b6001836020036101000a03801982511681845116808217855250505050505090500191505090815260200160405180910390206000820151816000019080519060200190611c7c929190612ee5565b506020820151816001019080519060200190611c99929190612ee5565b506040820151816002019080519060200190611cb6929190612ee5565b506060820151816003019080519060200190611cd3929190612ee5565b506080820151816004019080519060200190611cf0929190612ee5565b5060a08201518160050160006101000a81548160ff0219169083151502179055509050506040518060400160405280600281526020017f4f4b0000000000000000000000000000000000000000000000000000000000008152509050611d8a565b6040518060400160405280601c81526020017f4172656120636f646520616c726561647920726567697374657265640000000081525090505b9695505050505050565b60048181548110611da157fe5b906000526020600020016000915090508054600181600116156101000203166002900480601f016020809104026020016040519081016040528092919081815260200182805460018160011615610100020316600290048015611e455780601f10611e1a57610100808354040283529160200191611e45565b820191906000526020600020905b815481529060010190602001808311611e2857829003601f168201915b505050505081565b60603373ffffffffffffffffffffffffffffffffffffffff166000809054906101000a900473ffffffffffffffffffffffffffffffffffffffff1673ffffffffffffffffffffffffffffffffffffffff161480611ea8575060015b611eb157600080fd5b60011515600760008573ffffffffffffffffffffffffffffffffffffffff1673ffffffffffffffffffffffffffffffffffffffff16815260200190815260200160002060009054906101000a900460ff16151514612020576001600760008573ffffffffffffffffffffffffffffffffffffffff1673ffffffffffffffffffffffffffffffffffffffff16815260200190815260200160002060006101000a81548160ff02191690831515021790555060016008836040518082805190602001908083835b60208310611f995780518252602082019150602081019050602083039250611f76565b6001836020036101000a038019825116818451168082178552505050505050905001915050908152602001604051809103902060006101000a81548160ff0219169083151502179055506040518060400160405280600281526020017f4f4b000000000000000000000000000000000000000000000000000000000000815250905061203c565b60405180606001604052806031815260200161302b6031913990505b92915050565b6000600380549050905090565b606060011515600660003373ffffffffffffffffffffffffffffffffffffffff1673ffffffffffffffffffffffffffffffffffffffff16815260200190815260200160002060009054906101000a900460ff16151514806120ae575060015b6120b757600080fd5b856001600082825403925050819055506120cf612f65565b6040518060e0016040528089815260200188815260200186815260200185815260200184815260200187815260200142815250905060038190806001815401808255809150509060018203906000526020600020906007020160009091929091909150600082015181600001908051906020019061214e929190612ee5565b50602082015181600101556040820151816002019080519060200190612175929190612ee5565b506060820151816003019080519060200190612192929190612ee5565b5060808201518160040190805190602001906121af929190612ee5565b5060a08201518160050190805190602001906121cc929190612ee5565b5060c08201518160060155505050509695505050505050565b60015481565b600281815481106121f857fe5b9060005260206000209060060201600091509050806000018054600181600116156101000203166002900480601f0160208091040260200160405190810160405280929190818152602001828054600181600116156101000203166002900480156122a45780601f10612279576101008083540402835291602001916122a4565b820191906000526020600020905b81548152906001019060200180831161228757829003601f168201915b505050505090806001015490806002018054600181600116156101000203166002900480601f0160208091040260200160405190810160405280929190818152602001828054600181600116156101000203166002900480156123485780601f1061231d57610100808354040283529160200191612348565b820191906000526020600020905b81548152906001019060200180831161232b57829003601f168201915b505050505090806003018054600181600116156101000203166002900480601f0160208091040260200160405190810160405280929190818152602001828054600181600116156101000203166002900480156123e65780601f106123bb576101008083540402835291602001916123e6565b820191906000526020600020905b8154815290600101906020018083116123c957829003601f168201915b505050505090806004018054600181600116156101000203166002900480601f0160208091040260200160405190810160405280929190818152602001828054600181600116156101000203166002900480156124845780601f1061245957610100808354040283529160200191612484565b820191906000526020600020905b81548152906001019060200180831161246757829003601f168201915b5050505050908060050154905086565b600381815481106124a157fe5b9060005260206000209060070201600091509050806000018054600181600116156101000203166002900480601f01602080910402602001604051908101604052809291908181526020018280546001816001161561010002031660029004801561254d5780601f106125225761010080835404028352916020019161254d565b820191906000526020600020905b81548152906001019060200180831161253057829003601f168201915b505050505090806001015490806002018054600181600116156101000203166002900480601f0160208091040260200160405190810160405280929190818152602001828054600181600116156101000203166002900480156125f15780601f106125c6576101008083540402835291602001916125f1565b820191906000526020600020905b8154815290600101906020018083116125d457829003601f168201915b505050505090806003018054600181600116156101000203166002900480601f01602080910402602001604051908101604052809291908181526020018280546001816001161561010002031660029004801561268f5780601f106126645761010080835404028352916020019161268f565b820191906000526020600020905b81548152906001019060200180831161267257829003601f168201915b505050505090806004018054600181600116156101000203166002900480601f01602080910402602001604051908101604052809291908181526020018280546001816001161561010002031660029004801561272d5780601f106127025761010080835404028352916020019161272d565b820191906000526020600020905b81548152906001019060200180831161271057829003601f168201915b505050505090806005018054600181600116156101000203166002900480601f0160208091040260200160405190810160405280929190818152602001828054600181600116156101000203166002900480156127cb5780601f106127a0576101008083540402835291602001916127cb565b820191906000526020600020905b8154815290600101906020018083116127ae57829003601f168201915b5050505050908060060154905087565b60603373ffffffffffffffffffffffffffffffffffffffff166000809054906101000a900473ffffffffffffffffffffffffffffffffffffffff1673ffffffffffffffffffffffffffffffffffffffff161480612836575060015b61283f57600080fd5b60011515600760008573ffffffffffffffffffffffffffffffffffffffff1673ffffffffffffffffffffffffffffffffffffffff16815260200190815260200160002060009054906101000a900460ff161515146129ae576001600660008573ffffffffffffffffffffffffffffffffffffffff1673ffffffffffffffffffffffffffffffffffffffff16815260200190815260200160002060006101000a81548160ff02191690831515021790555060016009836040518082805190602001908083835b602083106129275780518252602082019150602081019050602083039250612904565b6001836020036101000a038019825116818451168082178552505050505050905001915050908152602001604051809103902060006101000a81548160ff0219169083151502179055506040518060400160405280600281526020017f4f4b00000000000000000000000000000000000000000000000000000000000081525090506129ca565b604051806060016040528060328152602001612ff96032913990505b92915050565b600581815481106129dd57fe5b9060005260206000209060050201600091509050806000018054600181600116156101000203166002900480601f016020809104026020016040519081016040528092919081815260200182805460018160011615610100020316600290048015612a895780601f10612a5e57610100808354040283529160200191612a89565b820191906000526020600020905b815481529060010190602001808311612a6c57829003601f168201915b505050505090806001018054600181600116156101000203166002900480601f016020809104026020016040519081016040528092919081815260200182805460018160011615610100020316600290048015612b275780601f10612afc57610100808354040283529160200191612b27565b820191906000526020600020905b815481529060010190602001808311612b0a57829003601f168201915b505050505090806002018054600181600116156101000203166002900480601f016020809104026020016040519081016040528092919081815260200182805460018160011615610100020316600290048015612bc55780601f10612b9a57610100808354040283529160200191612bc5565b820191906000526020600020905b815481529060010190602001808311612ba857829003601f168201915b505050505090806003018054600181600116156101000203166002900480601f016020809104026020016040519081016040528092919081815260200182805460018160011615610100020316600290048015612c635780601f10612c3857610100808354040283529160200191612c63565b820191906000526020600020905b815481529060010190602001808311612c4657829003601f168201915b5050505050908060040160009054906101000a900460ff16905085565b60011515600760003373ffffffffffffffffffffffffffffffffffffffff1673ffffffffffffffffffffffffffffffffffffffff16815260200190815260200160002060009054906101000a900460ff1615151480612d2f575060011515600660003373ffffffffffffffffffffffffffffffffffffffff1673ffffffffffffffffffffffffffffffffffffffff16815260200190815260200160002060009054906101000a900460ff161515145b80612d38575060015b612d4157600080fd5b612d49612fa2565b6040518060a0016040528086815260200185815260200184815260200183815260200160011515815250905080600a866040518082805190602001908083835b60208310612dac5780518252602082019150602081019050602083039250612d89565b6001836020036101000a03801982511681845116808217855250505050505090500191505090815260200160405180910390206000820151816000019080519060200190612dfb929190612ee5565b506020820151816001019080519060200190612e18929190612ee5565b506040820151816002019080519060200190612e35929190612ee5565b506060820151816003019080519060200190612e52929190612ee5565b5060808201518160040160006101000a81548160ff0219169083151502179055509050505050505050565b6000600280549050905090565b6000809054906101000a900473ffffffffffffffffffffffffffffffffffffffff1681565b6040518060c001604052806060815260200160008152602001606081526020016060815260200160608152602001600081525090565b828054600181600116156101000203166002900490600052602060002090601f016020900481019282601f10612f2657805160ff1916838001178555612f54565b82800160010185558215612f54579182015b82811115612f53578251825591602001919060010190612f38565b5b509050612f619190612fd3565b5090565b6040518060e00160405280606081526020016000815260200160608152602001606081526020016060815260200160608152602001600081525090565b6040518060a00160405280606081526020016060815260200160608152602001606081526020016000151581525090565b612ff591905b80821115612ff1576000816000905550600101612fd9565b5090565b9056fe476976656e206164647265737320616c7265616479207265676973746572656420617320637265646974206d616e61676572476976656e206164647265737320616c72656164792072656769737465726564206173206465626974206d616e61676572a165627a7a72305820e31fc168137977ed29d3dc53b02c83d442b14f4d97c03565467802c27a04251e0029",
  "source": "pragma solidity^0.5.1;\n\ncontract wmt {\n    address public admin;\n    uint public cfi_balance;\n    BlockIn[] public chainIn;\n    BlockOut[] public chainOut;\n    string[] public managers;\n    ControlAuthorityProfile[] public controllers;\n    mapping(address=>bool) debitAccessList;\n    mapping(address=>bool) creditAccessList;\n    mapping(string=>bool) taxingBoothCodeList;\n    mapping(string=>bool) treasuryCodeList;\n    mapping(string=>ControlAuthorityProfile) authorityMap;\n    mapping(string=>Area) areaCodeToArea;\n    \n    constructor() public{\n        admin = msg.sender;\n        addArea(\n            \"tambaram\",\n            \"TN\",\n            \"Chennai\",\n            \"Palavapuram\",\n            \"tambaram\",\n            \"600044\"\n        );\n        regieterControllingAuthority(\n            \"45\",\n            \"Shankar\",\n            \"Developer\",\n            \"CH1\"\n        );\n        creditTax(\n            \"808012739382\",\n            500000,\n            \"it\",\n            \"tax\" ,\n            \"CH1\"\n        );\n        creditTax(\n            \"808012739382\",\n            10000,\n            \"wt\",\n            \"tax\" ,\n            \"CH1\"\n        );\n        creditTax(\n            \"90783739893\",\n            8000000,\n            \"gst\",\n            \"tax\" ,\n            \"CH1\"\n        );\n        debitTax(\n            \"90783739893\",\n            300000,\n            \"tambaram\",\n            \"tender\" ,\n            \"Build a flyover\",\n            \"45\"\n        );\n        debitTax(\n            \"90783739893\",\n            50000,\n            \"tambaram\",\n            \"tender\" ,\n            \"Road construction\",\n            \"45\"\n        );\n    }\n    \n    modifier ownerOnly(){\n        require(admin==msg.sender || true);\n        _;\n    }\n    \n    modifier debitAccess(){\n        require(debitAccessList[msg.sender]==true || true);\n        _;\n    }\n\n    modifier creditAccess(){\n        require(creditAccessList[msg.sender]==true || true);\n        _;\n    }\n\n    modifier reserved(){\n        require(creditAccessList[msg.sender]==true || debitAccessList[msg.sender]==true || true);\n        _;\n    }\n    \n    struct BlockIn {\n        string id;\n        uint amount;\n        string tax_type;\n        string credit_type;\n        string tax_head_code; // TODO: Maintain a mapping to locality tax office\n        uint timestamp;\n    }\n\n    struct BlockOut {\n        string gstin;\n        uint amount;\n        string debitType;\n        string details;\n        string authorityId;\n        string areaCode;\n        uint timestamp;\n    }\n    \n    struct ControlAuthorityProfile {\n        string id;\n        string name;\n        string designation;\n        string branchCode;\n        bool exist;\n    }\n    struct Area {\n        //Pre-registered list by government\n        string state;\n        string district;\n        string subDivision;\n        string locality;\n        string pincode;\n        bool exist;\n    }\n\n    //check in backend for proper tax type by differnt head office\n    function creditTax(string memory id, uint amount,string memory tax_type,string memory credit_type, string memory tax_head_code) public creditAccess payable returns(string memory){\n        cfi_balance += amount;\n        BlockIn memory newBlockIn = BlockIn({\n            id:id,\n            amount:amount,\n            credit_type:credit_type,\n            tax_type:tax_type,\n            tax_head_code:tax_head_code,\n            timestamp:block.timestamp\n        });\n        //Update Chain\n        chainIn.push(newBlockIn);\n        return \"OK\";\n    }\n\n    function debitTax(string memory gstin, uint amount, string memory areaCode, string memory debitType, string memory details,string memory authorityId) public debitAccess payable returns(string memory){\n            cfi_balance -= amount;\n            BlockOut memory newBlockOut = BlockOut({\n                gstin:gstin,\n                amount:amount,\n                debitType:debitType,\n                areaCode:areaCode,\n                details:details,\n                authorityId:authorityId,\n                timestamp:block.timestamp\n            });\n            chainOut.push(newBlockOut);\n    }\n    \n    function registerDebitManager(address m_address,string memory treasuryCode) public ownerOnly payable returns(string memory){\n        if(creditAccessList[m_address]!=true){\n            debitAccessList[m_address]=true;\n            treasuryCodeList[treasuryCode]=true;\n            return \"OK\";\n        } else {\n            return \"Given address already registered as credit manager\";\n        }\n    }\n\n    function registerCreditManager(address m_address,string memory taxBoothCode) public ownerOnly payable returns(string memory){\n        if(creditAccessList[m_address]!=true){\n            creditAccessList[m_address]=true;\n            taxingBoothCodeList[taxBoothCode]=true;\n            return \"OK\";\n        } else {\n            return \"Given address already registered as debit manager\";\n        }\n    }\n\n    function addArea(\n        string memory areaCode,\n        string memory state,\n        string memory district,\n        string memory subDivision,\n        string memory locality,\n        string memory pincode\n    ) public reserved payable returns(string memory){\n        if(areaCodeToArea[areaCode].exist != true){\n            areaCodeToArea[areaCode] = Area({\n                state:state,\n                district:district,\n                subDivision:subDivision,\n                locality:locality,\n                pincode:pincode,\n                exist: true\n            });\n            return \"OK\";\n        }\n        return \"Area code already registered\";\n    }\n\n    function regieterControllingAuthority(string memory id, string memory name, string memory designation, string memory branchCode) public reserved payable\n    {\n        ControlAuthorityProfile memory newAuthority = ControlAuthorityProfile({\n            id:id,\n            name:name,\n            branchCode:branchCode,\n            designation:designation,\n            exist:true\n        });\n        authorityMap[id]=newAuthority;\n    }\n    \n    function getChainInLength() public view returns(uint){\n        return chainIn.length;\n    }\n\n    function getChainOutLength() public view returns(uint){\n        return chainOut.length;\n    }\n    \n    // function getState(string memory areaCode) public view returns(string){\n    //     return areaCodeToArea[areaCode].state;\n    // }\n    // function getDistrict(string memory areaCode) public view returns(string){\n    //     return areaCodeToArea[areaCode].district;\n    // }\n}",
  "sourcePath": "/mnt/SSD/Other/wmt2/contracts/wmt.sol",
  "compiler": {
    "name": "solc",
    "version": "0.5.8+commit.23d335f2.Emscripten.clang"
  },
  "schemaVersion": "3.0.11",
  "updatedAt": "2019-06-23T04:05:18.032Z",
  "devdoc": {
    "methods": {}
  },
  "userdoc": {
    "methods": {}
  }
}